{
  "address": "0xa78A009ce15C4E3e14dfc08199467d01A3f84055",
  "abi": [
    {
      "inputs": [
        {
          "internalType": "uint256",
          "name": "_entranceFee",
          "type": "uint256"
        },
        {
          "internalType": "address",
          "name": "_priceFeedAddress",
          "type": "address"
        },
        {
          "internalType": "address",
          "name": "_vrfCoordinator",
          "type": "address"
        },
        {
          "internalType": "address",
          "name": "_aavePoolAddress",
          "type": "address"
        },
        {
          "internalType": "address",
          "name": "_wethContractAddress",
          "type": "address"
        },
        {
          "internalType": "uint64",
          "name": "_subscriptionId",
          "type": "uint64"
        },
        {
          "internalType": "bytes32",
          "name": "_keyHash",
          "type": "bytes32"
        }
      ],
      "stateMutability": "nonpayable",
      "type": "constructor"
    },
    {
      "inputs": [],
      "name": "Lottery_IncorrectRandomNumber",
      "type": "error"
    },
    {
      "inputs": [],
      "name": "Lottery_IncorrectState_CalcWinnerRequired",
      "type": "error"
    },
    {
      "inputs": [],
      "name": "Lottery_IncorrectState_CloseRequired",
      "type": "error"
    },
    {
      "inputs": [],
      "name": "Lottery_IncorrectState_OpenRequired",
      "type": "error"
    },
    {
      "inputs": [],
      "name": "Lottery_IncorrectState_WinnerSelectedRequired",
      "type": "error"
    },
    {
      "inputs": [],
      "name": "Lottery_InsufficientEntranceFee",
      "type": "error"
    },
    {
      "inputs": [],
      "name": "Lottery_NotEnoughEthToEnter",
      "type": "error"
    },
    {
      "inputs": [],
      "name": "Lottery_OnlyOwnerAuthorized",
      "type": "error"
    },
    {
      "inputs": [
        {
          "internalType": "address",
          "name": "have",
          "type": "address"
        },
        {
          "internalType": "address",
          "name": "want",
          "type": "address"
        }
      ],
      "name": "OnlyCoordinatorCanFulfill",
      "type": "error"
    },
    {
      "anonymous": false,
      "inputs": [
        {
          "indexed": false,
          "internalType": "uint256",
          "name": "date",
          "type": "uint256"
        },
        {
          "indexed": false,
          "internalType": "address",
          "name": "player",
          "type": "address"
        },
        {
          "indexed": false,
          "internalType": "uint256",
          "name": "prizePool",
          "type": "uint256"
        }
      ],
      "name": "EmrgStopLotteryInitiated",
      "type": "event"
    },
    {
      "anonymous": false,
      "inputs": [
        {
          "indexed": false,
          "internalType": "uint256",
          "name": "date",
          "type": "uint256"
        },
        {
          "indexed": false,
          "internalType": "uint256",
          "name": "entranceFee",
          "type": "uint256"
        },
        {
          "indexed": false,
          "internalType": "address",
          "name": "player",
          "type": "address"
        }
      ],
      "name": "EntranceFeeChanged",
      "type": "event"
    },
    {
      "anonymous": false,
      "inputs": [
        {
          "indexed": false,
          "internalType": "uint256",
          "name": "date",
          "type": "uint256"
        },
        {
          "indexed": false,
          "internalType": "address",
          "name": "player",
          "type": "address"
        },
        {
          "indexed": false,
          "internalType": "uint256",
          "name": "amount",
          "type": "uint256"
        }
      ],
      "name": "EthReceived",
      "type": "event"
    },
    {
      "anonymous": false,
      "inputs": [
        {
          "indexed": false,
          "internalType": "uint256",
          "name": "date",
          "type": "uint256"
        },
        {
          "indexed": false,
          "internalType": "address",
          "name": "player",
          "type": "address"
        },
        {
          "indexed": false,
          "internalType": "uint256",
          "name": "amount",
          "type": "uint256"
        }
      ],
      "name": "MoneySentToWinner",
      "type": "event"
    },
    {
      "anonymous": false,
      "inputs": [
        {
          "indexed": false,
          "internalType": "uint256",
          "name": "date",
          "type": "uint256"
        },
        {
          "indexed": false,
          "internalType": "address",
          "name": "player",
          "type": "address"
        },
        {
          "indexed": false,
          "internalType": "uint256",
          "name": "amount",
          "type": "uint256"
        },
        {
          "indexed": false,
          "internalType": "uint256",
          "name": "prizePool",
          "type": "uint256"
        }
      ],
      "name": "NewPlayer",
      "type": "event"
    },
    {
      "anonymous": false,
      "inputs": [
        {
          "indexed": false,
          "internalType": "uint256",
          "name": "date",
          "type": "uint256"
        },
        {
          "indexed": false,
          "internalType": "uint256",
          "name": "randomNumber",
          "type": "uint256"
        },
        {
          "indexed": false,
          "internalType": "uint256",
          "name": "recentWinnerIndex",
          "type": "uint256"
        },
        {
          "indexed": false,
          "internalType": "address",
          "name": "recentWinner",
          "type": "address"
        }
      ],
      "name": "RandomNumberReceived",
      "type": "event"
    },
    {
      "anonymous": false,
      "inputs": [
        {
          "indexed": false,
          "internalType": "uint256",
          "name": "date",
          "type": "uint256"
        },
        {
          "indexed": false,
          "internalType": "uint256",
          "name": "requestId",
          "type": "uint256"
        }
      ],
      "name": "RandomRequestSent",
      "type": "event"
    },
    {
      "stateMutability": "payable",
      "type": "fallback"
    },
    {
      "inputs": [],
      "name": "checkAaveBalance",
      "outputs": [
        {
          "internalType": "uint256",
          "name": "",
          "type": "uint256"
        },
        {
          "internalType": "uint256",
          "name": "",
          "type": "uint256"
        }
      ],
      "stateMutability": "view",
      "type": "function"
    },
    {
      "inputs": [],
      "name": "emrgStopLottery",
      "outputs": [],
      "stateMutability": "nonpayable",
      "type": "function"
    },
    {
      "inputs": [],
      "name": "endLottery",
      "outputs": [],
      "stateMutability": "nonpayable",
      "type": "function"
    },
    {
      "inputs": [],
      "name": "enterLottery",
      "outputs": [],
      "stateMutability": "payable",
      "type": "function"
    },
    {
      "inputs": [],
      "name": "getEntranceFee",
      "outputs": [
        {
          "internalType": "uint256",
          "name": "",
          "type": "uint256"
        }
      ],
      "stateMutability": "view",
      "type": "function"
    },
    {
      "inputs": [],
      "name": "getEntranceFeeUSD",
      "outputs": [
        {
          "internalType": "uint256",
          "name": "",
          "type": "uint256"
        }
      ],
      "stateMutability": "view",
      "type": "function"
    },
    {
      "inputs": [],
      "name": "getLotteryState",
      "outputs": [
        {
          "internalType": "enum Lottery.LotteryState",
          "name": "",
          "type": "uint8"
        }
      ],
      "stateMutability": "view",
      "type": "function"
    },
    {
      "inputs": [],
      "name": "getOwner",
      "outputs": [
        {
          "internalType": "address",
          "name": "",
          "type": "address"
        }
      ],
      "stateMutability": "view",
      "type": "function"
    },
    {
      "inputs": [
        {
          "internalType": "uint256",
          "name": "index",
          "type": "uint256"
        }
      ],
      "name": "getPlayer",
      "outputs": [
        {
          "internalType": "address",
          "name": "",
          "type": "address"
        }
      ],
      "stateMutability": "view",
      "type": "function"
    },
    {
      "inputs": [],
      "name": "getPlayersNumber",
      "outputs": [
        {
          "internalType": "uint256",
          "name": "",
          "type": "uint256"
        }
      ],
      "stateMutability": "view",
      "type": "function"
    },
    {
      "inputs": [],
      "name": "getPrizePool",
      "outputs": [
        {
          "internalType": "uint256",
          "name": "",
          "type": "uint256"
        }
      ],
      "stateMutability": "view",
      "type": "function"
    },
    {
      "inputs": [],
      "name": "getRecentWinner",
      "outputs": [
        {
          "internalType": "address",
          "name": "",
          "type": "address"
        }
      ],
      "stateMutability": "view",
      "type": "function"
    },
    {
      "inputs": [
        {
          "internalType": "uint256",
          "name": "requestId",
          "type": "uint256"
        },
        {
          "internalType": "uint256[]",
          "name": "randomWords",
          "type": "uint256[]"
        }
      ],
      "name": "rawFulfillRandomWords",
      "outputs": [],
      "stateMutability": "nonpayable",
      "type": "function"
    },
    {
      "inputs": [],
      "name": "s_lotteryState",
      "outputs": [
        {
          "internalType": "enum Lottery.LotteryState",
          "name": "",
          "type": "uint8"
        }
      ],
      "stateMutability": "view",
      "type": "function"
    },
    {
      "inputs": [
        {
          "internalType": "uint256",
          "name": "value",
          "type": "uint256"
        }
      ],
      "name": "setEntranceFee",
      "outputs": [],
      "stateMutability": "nonpayable",
      "type": "function"
    },
    {
      "inputs": [],
      "name": "startLottery",
      "outputs": [],
      "stateMutability": "nonpayable",
      "type": "function"
    },
    {
      "inputs": [],
      "name": "transferFundsToWinner",
      "outputs": [],
      "stateMutability": "nonpayable",
      "type": "function"
    },
    {
      "stateMutability": "payable",
      "type": "receive"
    }
  ],
  "transactionHash": "0x4db4424852391dcf35d4ea893c91140d86fb6d8ace93fd2ab29b42847d21a636",
  "args": [
    50,
    "0x8A753747A1Fa494EC906cE90E9f37563A8AF630e",
    "0x6168499c0cFfCaCD319c818142124B7A15E857ab",
    "0x3561c45840e2681495ACCa3c50Ef4dAe330c94F8",
    "0x98a5F1520f7F7fb1e83Fe3398f9aBd151f8C65ed",
    "3156",
    "0xd89b2bf150e3b9e13446986e571fb9cab24b13cea0a43ea20a6049a85cc807cc"
  ],
  "numDeployments": 2,
  "solcInputHash": "90ecad7e01177fe16f032c7298593961",
  "bytecode": "0x6101a06040523480156200001257600080fd5b5060405162002af538038062002af58339818101604052810190620000389190620002a4565b848073ffffffffffffffffffffffffffffffffffffffff1660808173ffffffffffffffffffffffffffffffffffffffff1660601b81525050506001871015620000ad576040517f134c418a00000000000000000000000000000000000000000000000000000000815260040160405180910390fd5b866000819055506001600360146101000a81548160ff02191690836003811115620000dd57620000dc620003b3565b5b02179055503373ffffffffffffffffffffffffffffffffffffffff166101808173ffffffffffffffffffffffffffffffffffffffff1660601b815250508573ffffffffffffffffffffffffffffffffffffffff1660a08173ffffffffffffffffffffffffffffffffffffffff1660601b815250508473ffffffffffffffffffffffffffffffffffffffff1660c08173ffffffffffffffffffffffffffffffffffffffff1660601b815250508167ffffffffffffffff1660e08167ffffffffffffffff1660c01b81525050806101008181525050620186a063ffffffff166101208163ffffffff1660e01b815250508373ffffffffffffffffffffffffffffffffffffffff166101408173ffffffffffffffffffffffffffffffffffffffff1660601b815250508273ffffffffffffffffffffffffffffffffffffffff166101608173ffffffffffffffffffffffffffffffffffffffff1660601b81525050505050505050506200044f565b6000815190506200025981620003e7565b92915050565b600081519050620002708162000401565b92915050565b60008151905062000287816200041b565b92915050565b6000815190506200029e8162000435565b92915050565b600080600080600080600060e0888a031215620002c657620002c5620003e2565b5b6000620002d68a828b0162000276565b9750506020620002e98a828b0162000248565b9650506040620002fc8a828b0162000248565b95505060606200030f8a828b0162000248565b9450506080620003228a828b0162000248565b93505060a0620003358a828b016200028d565b92505060c0620003488a828b016200025f565b91505092959891949750929550565b6000620003648262000375565b9050919050565b6000819050919050565b600073ffffffffffffffffffffffffffffffffffffffff82169050919050565b6000819050919050565b600067ffffffffffffffff82169050919050565b7f4e487b7100000000000000000000000000000000000000000000000000000000600052602160045260246000fd5b600080fd5b620003f28162000357565b8114620003fe57600080fd5b50565b6200040c816200036b565b81146200041857600080fd5b50565b620004268162000395565b81146200043257600080fd5b50565b62000440816200039f565b81146200044c57600080fd5b50565b60805160601c60a05160601c60c05160601c60e05160c01c610100516101205160e01c6101405160601c6101605160601c6101805160601c61259162000564600039600081816104ff015281816106260152818161088c01528181610a0901528181610aca01528181610af301528181610ef4015281816110f301526111fa01526000818161092a01528181610ce6015281816115ee015281816116f80152818161178f0152818161183d015281816118cb01526119d5015260008181610b7b0152818161162a015281816116bc01528181611907015261199901526000611301015260006112bd015260006112de01526000611281015260006103c401526000818161078b01526107df01526125916000f3fe6080604052600436106101025760003560e01c8063766eef1111610095578063c1af578511610064578063c1af57851461030d578063d4c8c37314610317578063e55ae4e814610342578063fb322c3e1461037f578063fe56f5a01461039657610144565b8063766eef1114610260578063884bf67c1461028b578063893d20e8146102b6578063bc8d1bf0146102e157610144565b80631fe543e3116100d15780631fe543e3146101ca578063473f1ddc146101f35780636b68c03c1461021e5780636c6acd811461024957610144565b806309bc33a7146101465780631593a8c714610171578063160344e2146101885780631ec0072b1461019f57610144565b36610144577f999946acc98c7b7dacc26921697d55abbcb1637484b0a73040f0b06287e4332642333460405161013a93929190612015565b60405180910390a1005b005b34801561015257600080fd5b5061015b6103bf565b6040516101689190611fc3565b60405180910390f35b34801561017d57600080fd5b50610186610490565b005b34801561019457600080fd5b5061019d6105b7565b005b3480156101ab57600080fd5b506101b4610780565b6040516101c19190611fc3565b60405180910390f35b3480156101d657600080fd5b506101f160048036038101906101ec9190611c81565b610789565b005b3480156101ff57600080fd5b50610208610849565b6040516102159190611e6c565b60405180910390f35b34801561022a57600080fd5b50610233610873565b6040516102409190611fa8565b60405180910390f35b34801561025557600080fd5b5061025e61088a565b005b34801561026c57600080fd5b50610275610aaf565b6040516102829190611fc3565b60405180910390f35b34801561029757600080fd5b506102a0610abc565b6040516102ad9190611fc3565b60405180910390f35b3480156102c257600080fd5b506102cb610ac6565b6040516102d89190611e6c565b60405180910390f35b3480156102ed57600080fd5b506102f6610aee565b604051610304929190612091565b60405180910390f35b610315610c36565b005b34801561032357600080fd5b5061032c610e2b565b6040516103399190611fa8565b60405180910390f35b34801561034e57600080fd5b5061036960048036038101906103649190611c27565b610e3e565b6040516103769190611e6c565b60405180910390f35b34801561038b57600080fd5b50610394610e86565b005b3480156103a257600080fd5b506103bd60048036038101906103b89190611c27565b611084565b005b6000807f000000000000000000000000000000000000000000000000000000000000000073ffffffffffffffffffffffffffffffffffffffff1663feaf968c6040518163ffffffff1660e01b815260040160a06040518083038186803b15801561042857600080fd5b505afa15801561043c573d6000803e3d6000fd5b505050506040513d601f19601f820116820180604052508101906104609190611d6a565b505050915050806a52b7d2dcc80cd2e4000000600054610480919061220e565b61048a91906121dd565b91505090565b600060038111156104a4576104a3612439565b5b600360149054906101000a900460ff1660038111156104c6576104c5612439565b5b146104fd576040517fa719ccbc00000000000000000000000000000000000000000000000000000000815260040160405180910390fd5b7f000000000000000000000000000000000000000000000000000000000000000073ffffffffffffffffffffffffffffffffffffffff163373ffffffffffffffffffffffffffffffffffffffff1614610582576040517fd1ff2e7800000000000000000000000000000000000000000000000000000000815260040160405180910390fd5b6002600360146101000a81548160ff021916908360038111156105a8576105a7612439565b5b02179055506105b56111f8565b565b600160038111156105cb576105ca612439565b5b600360149054906101000a900460ff1660038111156105ed576105ec612439565b5b14610624576040517f091c448200000000000000000000000000000000000000000000000000000000815260040160405180910390fd5b7f000000000000000000000000000000000000000000000000000000000000000073ffffffffffffffffffffffffffffffffffffffff163373ffffffffffffffffffffffffffffffffffffffff16146106a9576040517fd1ff2e7800000000000000000000000000000000000000000000000000000000815260040160405180910390fd5b600067ffffffffffffffff8111156106c4576106c3612497565b5b6040519080825280602002602001820160405280156106f25781602001602082028036833780820191505090505b5060029080519060200190610708929190611a4c565b506000600360006101000a81548173ffffffffffffffffffffffffffffffffffffffff021916908373ffffffffffffffffffffffffffffffffffffffff16021790555060006001819055506000600360146101000a81548160ff0219169083600381111561077957610778612439565b5b0217905550565b60008054905090565b7f000000000000000000000000000000000000000000000000000000000000000073ffffffffffffffffffffffffffffffffffffffff163373ffffffffffffffffffffffffffffffffffffffff161461083b57337f00000000000000000000000000000000000000000000000000000000000000006040517f1cf993f4000000000000000000000000000000000000000000000000000000008152600401610832929190611e87565b60405180910390fd5b61084582826113d2565b5050565b6000600360009054906101000a900473ffffffffffffffffffffffffffffffffffffffff16905090565b6000600360149054906101000a900460ff16905090565b7f000000000000000000000000000000000000000000000000000000000000000073ffffffffffffffffffffffffffffffffffffffff163373ffffffffffffffffffffffffffffffffffffffff161461090f576040517fd1ff2e7800000000000000000000000000000000000000000000000000000000815260040160405180910390fd5b600068056bc75e2d631000009050610926816115ec565b60007f000000000000000000000000000000000000000000000000000000000000000073ffffffffffffffffffffffffffffffffffffffff166370a08231306040518263ffffffff1660e01b81526004016109819190611e6c565b60206040518083038186803b15801561099957600080fd5b505afa1580156109ad573d6000803e3d6000fd5b505050506040513d601f19601f820116820180604052508101906109d19190611c54565b90506109dc8161178d565b6001600360146101000a81548160ff02191690836003811115610a0257610a01612439565b5b02179055507f000000000000000000000000000000000000000000000000000000000000000073ffffffffffffffffffffffffffffffffffffffff166108fc479081150290604051600060405180830381858888f19350505050158015610a6d573d6000803e3d6000fd5b507ffd2f632c37f787285ca35c1db75c926bffe5842aa216e725eefad4b18916f5f24233600154604051610aa393929190612015565b60405180910390a15050565b6000600280549050905090565b6000600154905090565b60007f0000000000000000000000000000000000000000000000000000000000000000905090565b6000807f000000000000000000000000000000000000000000000000000000000000000073ffffffffffffffffffffffffffffffffffffffff163373ffffffffffffffffffffffffffffffffffffffff1614610b76576040517fd1ff2e7800000000000000000000000000000000000000000000000000000000815260040160405180910390fd5b6000807f000000000000000000000000000000000000000000000000000000000000000073ffffffffffffffffffffffffffffffffffffffff1663bf92857c306040518263ffffffff1660e01b8152600401610bd29190611e6c565b60c06040518083038186803b158015610bea57600080fd5b505afa158015610bfe573d6000803e3d6000fd5b505050506040513d601f19601f82011682018060405250810190610c229190611cdd565b505050509150915081819350935050509091565b60006003811115610c4a57610c49612439565b5b600360149054906101000a900460ff166003811115610c6c57610c6b612439565b5b14610ca3576040517fa719ccbc00000000000000000000000000000000000000000000000000000000815260040160405180910390fd5b610cab6103bf565b341015610ce4576040517f457254e300000000000000000000000000000000000000000000000000000000815260040160405180910390fd5b7f000000000000000000000000000000000000000000000000000000000000000073ffffffffffffffffffffffffffffffffffffffff1663d0e30db0346040518263ffffffff1660e01b81526004016000604051808303818588803b158015610d4c57600080fd5b505af1158015610d60573d6000803e3d6000fd5b5050505050610d6e346118c9565b3460016000828254610d809190612187565b925050819055506002339080600181540180825580915050600190039060005260206000200160009091909190916101000a81548173ffffffffffffffffffffffffffffffffffffffff021916908373ffffffffffffffffffffffffffffffffffffffff1602179055507f3adf88379a3a55a4c298c42c5d8cf7e2be6ba616ce552f3fdf798c8b0912e543423334600154604051610e21949392919061204c565b60405180910390a1565b600360149054906101000a900460ff1681565b600060028281548110610e5457610e53612468565b5b9060005260206000200160009054906101000a900473ffffffffffffffffffffffffffffffffffffffff169050919050565b600380811115610e9957610e98612439565b5b600360149054906101000a900460ff166003811115610ebb57610eba612439565b5b14610ef2576040517fc94872cb00000000000000000000000000000000000000000000000000000000815260040160405180910390fd5b7f000000000000000000000000000000000000000000000000000000000000000073ffffffffffffffffffffffffffffffffffffffff163373ffffffffffffffffffffffffffffffffffffffff1614610f77576040517fd1ff2e7800000000000000000000000000000000000000000000000000000000815260040160405180910390fd5b610f826001546115ec565b610f8d60015461178d565b6001600360146101000a81548160ff02191690836003811115610fb357610fb2612439565b5b0217905550600360009054906101000a900473ffffffffffffffffffffffffffffffffffffffff1673ffffffffffffffffffffffffffffffffffffffff166108fc6001549081150290604051600060405180830381858888f19350505050158015611022573d6000803e3d6000fd5b507fe69918a4005007a4f1ece77dfd6732a6507d48dedd08837d38c74fb26a9fad2942600360009054906101000a900473ffffffffffffffffffffffffffffffffffffffff1660015460405161107a93929190611fde565b60405180910390a1565b6001600381111561109857611097612439565b5b600360149054906101000a900460ff1660038111156110ba576110b9612439565b5b146110f1576040517f091c448200000000000000000000000000000000000000000000000000000000815260040160405180910390fd5b7f000000000000000000000000000000000000000000000000000000000000000073ffffffffffffffffffffffffffffffffffffffff163373ffffffffffffffffffffffffffffffffffffffff1614611176576040517fd1ff2e7800000000000000000000000000000000000000000000000000000000815260040160405180910390fd5b60018110156111b1576040517f134c418a00000000000000000000000000000000000000000000000000000000815260040160405180910390fd5b806000819055507fcffb97a960932c4941cf25a5dc47136c2c0bdb4eeef5b41cfb78bfc1e35f80e242600054336040516111ed939291906120ba565b60405180910390a150565b7f000000000000000000000000000000000000000000000000000000000000000073ffffffffffffffffffffffffffffffffffffffff163373ffffffffffffffffffffffffffffffffffffffff161461127d576040517fd1ff2e7800000000000000000000000000000000000000000000000000000000815260040160405180910390fd5b60007f000000000000000000000000000000000000000000000000000000000000000073ffffffffffffffffffffffffffffffffffffffff16635d3b1d307f00000000000000000000000000000000000000000000000000000000000000007f000000000000000000000000000000000000000000000000000000000000000060037f000000000000000000000000000000000000000000000000000000000000000060016040518663ffffffff1660e01b8152600401611342959493929190611f55565b602060405180830381600087803b15801561135c57600080fd5b505af1158015611370573d6000803e3d6000fd5b505050506040513d601f19601f820116820180604052508101906113949190611c54565b90507f90dce42ecf81a4e47188055540db1bde6c77b88941ba9aaf76e6e38bdc9a865042826040516113c7929190612091565b60405180910390a150565b600260038111156113e6576113e5612439565b5b600360149054906101000a900460ff16600381111561140857611407612439565b5b1461143f576040517f3ca9be4600000000000000000000000000000000000000000000000000000000815260040160405180910390fd5b60008160008151811061145557611454612468565b5b602002602001015111611494576040517ffdcf179c00000000000000000000000000000000000000000000000000000000815260040160405180910390fd5b6000600280549050826000815181106114b0576114af612468565b5b60200260200101516114c291906123aa565b9050600281815481106114d8576114d7612468565b5b9060005260206000200160009054906101000a900473ffffffffffffffffffffffffffffffffffffffff16600360006101000a81548173ffffffffffffffffffffffffffffffffffffffff021916908373ffffffffffffffffffffffffffffffffffffffff16021790555060038060146101000a81548160ff0219169083600381111561156857611567612439565b5b02179055507f1fb16c696e197eb943bf66b85630ccdc6b3ebcbbee7452c1335238ace4aaeb3c42836000815181106115a3576115a2612468565b5b602002602001015183600360009054906101000a900473ffffffffffffffffffffffffffffffffffffffff166040516115df94939291906120f1565b60405180910390a1505050565b7f000000000000000000000000000000000000000000000000000000000000000073ffffffffffffffffffffffffffffffffffffffff1663095ea7b37f0000000000000000000000000000000000000000000000000000000000000000836040518363ffffffff1660e01b8152600401611667929190611eb0565b602060405180830381600087803b15801561168157600080fd5b505af1158015611695573d6000803e3d6000fd5b505050506040513d601f19601f820116820180604052508101906116b99190611bfa565b507f000000000000000000000000000000000000000000000000000000000000000073ffffffffffffffffffffffffffffffffffffffff166369328dec7f000000000000000000000000000000000000000000000000000000000000000083306040518463ffffffff1660e01b815260040161173793929190611ed9565b602060405180830381600087803b15801561175157600080fd5b505af1158015611765573d6000803e3d6000fd5b505050506040513d601f19601f820116820180604052508101906117899190611c54565b5050565b7f000000000000000000000000000000000000000000000000000000000000000073ffffffffffffffffffffffffffffffffffffffff1663095ea7b330836040518363ffffffff1660e01b81526004016117e8929190611eb0565b602060405180830381600087803b15801561180257600080fd5b505af1158015611816573d6000803e3d6000fd5b505050506040513d601f19601f8201168201806040525081019061183a9190611bfa565b507f000000000000000000000000000000000000000000000000000000000000000073ffffffffffffffffffffffffffffffffffffffff16632e1a7d4d826040518263ffffffff1660e01b81526004016118949190611fc3565b600060405180830381600087803b1580156118ae57600080fd5b505af11580156118c2573d6000803e3d6000fd5b5050505050565b7f000000000000000000000000000000000000000000000000000000000000000073ffffffffffffffffffffffffffffffffffffffff1663095ea7b37f0000000000000000000000000000000000000000000000000000000000000000836040518363ffffffff1660e01b8152600401611944929190611eb0565b602060405180830381600087803b15801561195e57600080fd5b505af1158015611972573d6000803e3d6000fd5b505050506040513d601f19601f820116820180604052508101906119969190611bfa565b507f000000000000000000000000000000000000000000000000000000000000000073ffffffffffffffffffffffffffffffffffffffff1663617ba0377f0000000000000000000000000000000000000000000000000000000000000000833060006040518563ffffffff1660e01b8152600401611a179493929190611f10565b600060405180830381600087803b158015611a3157600080fd5b505af1158015611a45573d6000803e3d6000fd5b5050505050565b828054828255906000526020600020908101928215611ac5579160200282015b82811115611ac45782518260006101000a81548173ffffffffffffffffffffffffffffffffffffffff021916908373ffffffffffffffffffffffffffffffffffffffff16021790555091602001919060010190611a6c565b5b509050611ad29190611ad6565b5090565b5b80821115611aef576000816000905550600101611ad7565b5090565b6000611b06611b018461215b565b612136565b90508083825260208201905082856020860282011115611b2957611b286124cb565b5b60005b85811015611b595781611b3f8882611bbb565b845260208401935060208301925050600181019050611b2c565b5050509392505050565b600082601f830112611b7857611b776124c6565b5b8135611b88848260208601611af3565b91505092915050565b600081519050611ba0816124ff565b92915050565b600081519050611bb581612516565b92915050565b600081359050611bca8161252d565b92915050565b600081519050611bdf8161252d565b92915050565b600081519050611bf481612544565b92915050565b600060208284031215611c1057611c0f6124d5565b5b6000611c1e84828501611b91565b91505092915050565b600060208284031215611c3d57611c3c6124d5565b5b6000611c4b84828501611bbb565b91505092915050565b600060208284031215611c6a57611c696124d5565b5b6000611c7884828501611bd0565b91505092915050565b60008060408385031215611c9857611c976124d5565b5b6000611ca685828601611bbb565b925050602083013567ffffffffffffffff811115611cc757611cc66124d0565b5b611cd385828601611b63565b9150509250929050565b60008060008060008060c08789031215611cfa57611cf96124d5565b5b6000611d0889828a01611bd0565b9650506020611d1989828a01611bd0565b9550506040611d2a89828a01611bd0565b9450506060611d3b89828a01611bd0565b9350506080611d4c89828a01611bd0565b92505060a0611d5d89828a01611bd0565b9150509295509295509295565b600080600080600060a08688031215611d8657611d856124d5565b5b6000611d9488828901611be5565b9550506020611da588828901611ba6565b9450506040611db688828901611bd0565b9350506060611dc788828901611bd0565b9250506080611dd888828901611be5565b9150509295509295909350565b611dee8161231f565b82525050565b611dfd81612268565b82525050565b611e0c81612286565b82525050565b611e1b81612331565b82525050565b611e2a81612343565b82525050565b611e39816122ad565b82525050565b611e48816122db565b82525050565b611e57816122e5565b82525050565b611e66816122f5565b82525050565b6000602082019050611e816000830184611df4565b92915050565b6000604082019050611e9c6000830185611df4565b611ea96020830184611df4565b9392505050565b6000604082019050611ec56000830185611df4565b611ed26020830184611e3f565b9392505050565b6000606082019050611eee6000830186611df4565b611efb6020830185611e3f565b611f086040830184611df4565b949350505050565b6000608082019050611f256000830187611df4565b611f326020830186611e3f565b611f3f6040830185611df4565b611f4c6060830184611e21565b95945050505050565b600060a082019050611f6a6000830188611e03565b611f776020830187611e5d565b611f846040830186611e30565b611f916060830185611e4e565b611f9e6080830184611e4e565b9695505050505050565b6000602082019050611fbd6000830184611e12565b92915050565b6000602082019050611fd86000830184611e3f565b92915050565b6000606082019050611ff36000830186611e3f565b6120006020830185611de5565b61200d6040830184611e3f565b949350505050565b600060608201905061202a6000830186611e3f565b6120376020830185611df4565b6120446040830184611e3f565b949350505050565b60006080820190506120616000830187611e3f565b61206e6020830186611df4565b61207b6040830185611e3f565b6120886060830184611e3f565b95945050505050565b60006040820190506120a66000830185611e3f565b6120b36020830184611e3f565b9392505050565b60006060820190506120cf6000830186611e3f565b6120dc6020830185611e3f565b6120e96040830184611df4565b949350505050565b60006080820190506121066000830187611e3f565b6121136020830186611e3f565b6121206040830185611e3f565b61212d6060830184611de5565b95945050505050565b6000612140612151565b905061214c8282612379565b919050565b6000604051905090565b600067ffffffffffffffff82111561217657612175612497565b5b602082029050602081019050919050565b6000612192826122db565b915061219d836122db565b9250827fffffffffffffffffffffffffffffffffffffffffffffffffffffffffffffffff038211156121d2576121d16123db565b5b828201905092915050565b60006121e8826122db565b91506121f3836122db565b9250826122035761220261240a565b5b828204905092915050565b6000612219826122db565b9150612224836122db565b9250817fffffffffffffffffffffffffffffffffffffffffffffffffffffffffffffffff048311821515161561225d5761225c6123db565b5b828202905092915050565b6000612273826122bb565b9050919050565b60008115159050919050565b6000819050919050565b600081905061229e826124eb565b919050565b6000819050919050565b600061ffff82169050919050565b600073ffffffffffffffffffffffffffffffffffffffff82169050919050565b6000819050919050565b600063ffffffff82169050919050565b600067ffffffffffffffff82169050919050565b600069ffffffffffffffffffff82169050919050565b600061232a82612355565b9050919050565b600061233c82612290565b9050919050565b600061234e826122ad565b9050919050565b600061236082612367565b9050919050565b6000612372826122bb565b9050919050565b612382826124da565b810181811067ffffffffffffffff821117156123a1576123a0612497565b5b80604052505050565b60006123b5826122db565b91506123c0836122db565b9250826123d0576123cf61240a565b5b828206905092915050565b7f4e487b7100000000000000000000000000000000000000000000000000000000600052601160045260246000fd5b7f4e487b7100000000000000000000000000000000000000000000000000000000600052601260045260246000fd5b7f4e487b7100000000000000000000000000000000000000000000000000000000600052602160045260246000fd5b7f4e487b7100000000000000000000000000000000000000000000000000000000600052603260045260246000fd5b7f4e487b7100000000000000000000000000000000000000000000000000000000600052604160045260246000fd5b600080fd5b600080fd5b600080fd5b600080fd5b6000601f19601f8301169050919050565b600481106124fc576124fb612439565b5b50565b6125088161227a565b811461251357600080fd5b50565b61251f816122a3565b811461252a57600080fd5b50565b612536816122db565b811461254157600080fd5b50565b61254d81612309565b811461255857600080fd5b5056fea264697066735822122045d12585032718a54612d892c669c7ae0b8c034c0731a1460561b27c1252257b64736f6c63430008070033",
  "devdoc": {
    "author": "Vladimir Molchanov",
    "details": "This implements the Chainlink VRF Version 2. Money are deposited to Aave",
    "kind": "dev",
    "methods": {
      "checkAaveBalance()": {
        "details": "Gives ability to admin to check Aave balance"
      },
      "emrgStopLottery()": {
        "details": "This is the function to emergency stop Lottery if smth wrong"
      }
    },
    "title": "Dream Lottery Contract",
    "version": 1
  },
  "userdoc": {
    "events": {
      "EthReceived(uint256,address,uint256)": {
        "notice": "Keeping track of ETH send to contract"
      }
    },
    "kind": "user",
    "methods": {
      "emrgStopLottery()": {
        "notice": "1. Withdraw all funds from Aave2. Change to ETH3. Send to owner"
      },
      "endLottery()": {
        "notice": "This version of contract waits Admin to end lottery manually"
      },
      "enterLottery()": {
        "notice": "Public functions"
      },
      "setEntranceFee(uint256)": {
        "notice": "This version of contract allows to change entrance feeEntrance fee is set in USD"
      },
      "startLottery()": {
        "notice": "This version of contract waits Admin to start lottery manually"
      }
    },
    "notice": "This contract is updated with Style Guide, Natspec, Solhint linter recomendations, Slither test . Also some other modifications are performed.",
    "version": 1
  },
  "storageLayout": {
    "storage": [
      {
        "astId": 289,
        "contract": "contracts/Lottery.sol:Lottery",
        "label": "s_entranceFeeUSD",
        "offset": 0,
        "slot": "0",
        "type": "t_uint256"
      },
      {
        "astId": 291,
        "contract": "contracts/Lottery.sol:Lottery",
        "label": "s_prizePool",
        "offset": 0,
        "slot": "1",
        "type": "t_uint256"
      },
      {
        "astId": 296,
        "contract": "contracts/Lottery.sol:Lottery",
        "label": "s_players",
        "offset": 0,
        "slot": "2",
        "type": "t_array(t_address_payable)dyn_storage"
      },
      {
        "astId": 298,
        "contract": "contracts/Lottery.sol:Lottery",
        "label": "s_recentWinner",
        "offset": 0,
        "slot": "3",
        "type": "t_address_payable"
      },
      {
        "astId": 301,
        "contract": "contracts/Lottery.sol:Lottery",
        "label": "s_lotteryState",
        "offset": 20,
        "slot": "3",
        "type": "t_enum(LotteryState)263"
      }
    ],
    "types": {
      "t_address_payable": {
        "encoding": "inplace",
        "label": "address payable",
        "numberOfBytes": "20"
      },
      "t_array(t_address_payable)dyn_storage": {
        "base": "t_address_payable",
        "encoding": "dynamic_array",
        "label": "address payable[]",
        "numberOfBytes": "32"
      },
      "t_enum(LotteryState)263": {
        "encoding": "inplace",
        "label": "enum Lottery.LotteryState",
        "numberOfBytes": "1"
      },
      "t_uint256": {
        "encoding": "inplace",
        "label": "uint256",
        "numberOfBytes": "32"
      }
    }
  }
}