{
  "address": "0xEeb5d2884C4eA382Be78AB72A30d3CefAD0510C0",
  "abi": [
    {
      "inputs": [
        {
          "internalType": "address",
          "name": "_priceFeedAddress",
          "type": "address"
        },
        {
          "internalType": "address",
          "name": "_vrfCoordinator",
          "type": "address"
        },
        {
          "internalType": "address",
          "name": "_aavePoolAddress",
          "type": "address"
        },
        {
          "internalType": "address",
          "name": "_wethContractAddress",
          "type": "address"
        },
        {
          "internalType": "uint64",
          "name": "_subscriptionId",
          "type": "uint64"
        },
        {
          "internalType": "bytes32",
          "name": "_keyHash",
          "type": "bytes32"
        }
      ],
      "stateMutability": "nonpayable",
      "type": "constructor"
    },
    {
      "inputs": [
        {
          "internalType": "address",
          "name": "have",
          "type": "address"
        },
        {
          "internalType": "address",
          "name": "want",
          "type": "address"
        }
      ],
      "name": "OnlyCoordinatorCanFulfill",
      "type": "error"
    },
    {
      "anonymous": false,
      "inputs": [
        {
          "indexed": false,
          "internalType": "uint256",
          "name": "date",
          "type": "uint256"
        },
        {
          "indexed": false,
          "internalType": "address",
          "name": "player",
          "type": "address"
        },
        {
          "indexed": false,
          "internalType": "uint256",
          "name": "amount",
          "type": "uint256"
        }
      ],
      "name": "EthReceived",
      "type": "event"
    },
    {
      "anonymous": false,
      "inputs": [
        {
          "indexed": false,
          "internalType": "uint256",
          "name": "date",
          "type": "uint256"
        },
        {
          "indexed": false,
          "internalType": "address",
          "name": "player",
          "type": "address"
        },
        {
          "indexed": false,
          "internalType": "uint256",
          "name": "amount",
          "type": "uint256"
        }
      ],
      "name": "MoneySentToWinner",
      "type": "event"
    },
    {
      "anonymous": false,
      "inputs": [
        {
          "indexed": false,
          "internalType": "uint256",
          "name": "date",
          "type": "uint256"
        },
        {
          "indexed": false,
          "internalType": "address",
          "name": "player",
          "type": "address"
        },
        {
          "indexed": false,
          "internalType": "uint256",
          "name": "amount",
          "type": "uint256"
        },
        {
          "indexed": false,
          "internalType": "uint256",
          "name": "prizePool",
          "type": "uint256"
        }
      ],
      "name": "NewPlayer",
      "type": "event"
    },
    {
      "anonymous": false,
      "inputs": [
        {
          "indexed": false,
          "internalType": "uint256",
          "name": "date",
          "type": "uint256"
        },
        {
          "indexed": false,
          "internalType": "uint256",
          "name": "randomNumber",
          "type": "uint256"
        },
        {
          "indexed": false,
          "internalType": "uint256",
          "name": "recentWinnerIndex",
          "type": "uint256"
        },
        {
          "indexed": false,
          "internalType": "address",
          "name": "recentWinner",
          "type": "address"
        }
      ],
      "name": "RandomNumberReceived",
      "type": "event"
    },
    {
      "anonymous": false,
      "inputs": [
        {
          "indexed": false,
          "internalType": "uint256",
          "name": "date",
          "type": "uint256"
        },
        {
          "indexed": false,
          "internalType": "uint256",
          "name": "requestId",
          "type": "uint256"
        }
      ],
      "name": "RandomRequestSent",
      "type": "event"
    },
    {
      "stateMutability": "payable",
      "type": "fallback"
    },
    {
      "inputs": [],
      "name": "checkAaveBalance",
      "outputs": [
        {
          "internalType": "uint256",
          "name": "",
          "type": "uint256"
        },
        {
          "internalType": "uint256",
          "name": "",
          "type": "uint256"
        }
      ],
      "stateMutability": "view",
      "type": "function"
    },
    {
      "inputs": [],
      "name": "emrgStopLottery",
      "outputs": [],
      "stateMutability": "nonpayable",
      "type": "function"
    },
    {
      "inputs": [],
      "name": "endLottery",
      "outputs": [],
      "stateMutability": "nonpayable",
      "type": "function"
    },
    {
      "inputs": [],
      "name": "enter",
      "outputs": [],
      "stateMutability": "payable",
      "type": "function"
    },
    {
      "inputs": [],
      "name": "entranceFeeUSD",
      "outputs": [
        {
          "internalType": "uint256",
          "name": "",
          "type": "uint256"
        }
      ],
      "stateMutability": "view",
      "type": "function"
    },
    {
      "inputs": [],
      "name": "getEntranceFee",
      "outputs": [
        {
          "internalType": "uint256",
          "name": "",
          "type": "uint256"
        }
      ],
      "stateMutability": "view",
      "type": "function"
    },
    {
      "inputs": [],
      "name": "getPlayersNumber",
      "outputs": [
        {
          "internalType": "uint256",
          "name": "",
          "type": "uint256"
        }
      ],
      "stateMutability": "view",
      "type": "function"
    },
    {
      "inputs": [],
      "name": "lottery_state",
      "outputs": [
        {
          "internalType": "enum Lottery.LOTTERY_STATE",
          "name": "",
          "type": "uint8"
        }
      ],
      "stateMutability": "view",
      "type": "function"
    },
    {
      "inputs": [],
      "name": "owner",
      "outputs": [
        {
          "internalType": "address",
          "name": "",
          "type": "address"
        }
      ],
      "stateMutability": "view",
      "type": "function"
    },
    {
      "inputs": [
        {
          "internalType": "address",
          "name": "",
          "type": "address"
        }
      ],
      "name": "playerDeposit",
      "outputs": [
        {
          "internalType": "uint256",
          "name": "",
          "type": "uint256"
        }
      ],
      "stateMutability": "view",
      "type": "function"
    },
    {
      "inputs": [
        {
          "internalType": "uint256",
          "name": "",
          "type": "uint256"
        }
      ],
      "name": "players",
      "outputs": [
        {
          "internalType": "address payable",
          "name": "",
          "type": "address"
        }
      ],
      "stateMutability": "view",
      "type": "function"
    },
    {
      "inputs": [],
      "name": "prizePool",
      "outputs": [
        {
          "internalType": "uint256",
          "name": "",
          "type": "uint256"
        }
      ],
      "stateMutability": "view",
      "type": "function"
    },
    {
      "inputs": [
        {
          "internalType": "uint256",
          "name": "",
          "type": "uint256"
        }
      ],
      "name": "randomWords",
      "outputs": [
        {
          "internalType": "uint256",
          "name": "",
          "type": "uint256"
        }
      ],
      "stateMutability": "view",
      "type": "function"
    },
    {
      "inputs": [
        {
          "internalType": "uint256",
          "name": "requestId",
          "type": "uint256"
        },
        {
          "internalType": "uint256[]",
          "name": "randomWords",
          "type": "uint256[]"
        }
      ],
      "name": "rawFulfillRandomWords",
      "outputs": [],
      "stateMutability": "nonpayable",
      "type": "function"
    },
    {
      "inputs": [],
      "name": "recentWinner",
      "outputs": [
        {
          "internalType": "address payable",
          "name": "",
          "type": "address"
        }
      ],
      "stateMutability": "view",
      "type": "function"
    },
    {
      "inputs": [],
      "name": "startLottery",
      "outputs": [],
      "stateMutability": "nonpayable",
      "type": "function"
    },
    {
      "inputs": [],
      "name": "transferFundsToAdmin",
      "outputs": [],
      "stateMutability": "nonpayable",
      "type": "function"
    },
    {
      "inputs": [],
      "name": "transferFundsToWinner",
      "outputs": [],
      "stateMutability": "nonpayable",
      "type": "function"
    },
    {
      "inputs": [
        {
          "internalType": "uint256",
          "name": "amount",
          "type": "uint256"
        }
      ],
      "name": "withdrawAaveFunds",
      "outputs": [],
      "stateMutability": "nonpayable",
      "type": "function"
    },
    {
      "stateMutability": "payable",
      "type": "receive"
    }
  ],
  "transactionHash": "0x7f66b5791712c393860623679ab6131de47985ad4324f162885837c119e1ed2c",
  "args": [
    "0x8A753747A1Fa494EC906cE90E9f37563A8AF630e",
    "0x6168499c0cFfCaCD319c818142124B7A15E857ab",
    "0x3561c45840e2681495ACCa3c50Ef4dAe330c94F8",
    "0x98a5F1520f7F7fb1e83Fe3398f9aBd151f8C65ed",
    "3156",
    "0xd89b2bf150e3b9e13446986e571fb9cab24b13cea0a43ea20a6049a85cc807cc"
  ],
  "numDeployments": 1,
  "solcInputHash": "9ed045bd2c15e32955e7336e6fe0ace9",
  "bytecode": "0x60a0604052620186a0600760006101000a81548163ffffffff021916908363ffffffff1602179055506003600760046101000a81548161ffff021916908361ffff1602179055506001600760066101000a81548163ffffffff021916908363ffffffff1602179055503480156200007557600080fd5b506040516200307b3803806200307b83398181016040528101906200009b91906200036a565b848073ffffffffffffffffffffffffffffffffffffffff1660808173ffffffffffffffffffffffffffffffffffffffff1681525050506001600560006101000a81548160ff02191690836003811115620000fa57620000f962000406565b5b021790555033600360006101000a81548173ffffffffffffffffffffffffffffffffffffffff021916908373ffffffffffffffffffffffffffffffffffffffff16021790555085600960006101000a81548173ffffffffffffffffffffffffffffffffffffffff021916908373ffffffffffffffffffffffffffffffffffffffff16021790555084600a60006101000a81548173ffffffffffffffffffffffffffffffffffffffff021916908373ffffffffffffffffffffffffffffffffffffffff16021790555083600b60006101000a81548173ffffffffffffffffffffffffffffffffffffffff021916908373ffffffffffffffffffffffffffffffffffffffff16021790555082600c60006101000a81548173ffffffffffffffffffffffffffffffffffffffff021916908373ffffffffffffffffffffffffffffffffffffffff16021790555081600560016101000a81548167ffffffffffffffff021916908367ffffffffffffffff1602179055508060068190555050505050505062000435565b600080fd5b600073ffffffffffffffffffffffffffffffffffffffff82169050919050565b6000620002b28262000285565b9050919050565b620002c481620002a5565b8114620002d057600080fd5b50565b600081519050620002e481620002b9565b92915050565b600067ffffffffffffffff82169050919050565b6200030981620002ea565b81146200031557600080fd5b50565b6000815190506200032981620002fe565b92915050565b6000819050919050565b62000344816200032f565b81146200035057600080fd5b50565b600081519050620003648162000339565b92915050565b60008060008060008060c087890312156200038a576200038962000280565b5b60006200039a89828a01620002d3565b9650506020620003ad89828a01620002d3565b9550506040620003c089828a01620002d3565b9450506060620003d389828a01620002d3565b9350506080620003e689828a0162000318565b92505060a0620003f989828a0162000353565b9150509295509295509295565b7f4e487b7100000000000000000000000000000000000000000000000000000000600052602160045260246000fd5b608051612c236200045860003960008181610a530152610aa70152612c236000f3fe6080604052600436106101185760003560e01c806381447999116100a0578063e7a8d97711610064578063e7a8d97714610389578063e91ead6a146103a0578063e97dcb62146103dd578063f71d96cb146103e7578063fb322c3e146104245761015a565b8063814479991461029f5780638da5cb5b146102ca578063bc8d1bf0146102f5578063beff730f14610321578063dee7bc071461035e5761015a565b80631fe543e3116100e75780631fe543e3146101de5780634f8c70cf146102075780636c6acd8114610232578063719ce73e14610249578063766eef11146102745761015a565b806309bc33a71461015c5780631593a8c714610187578063160344e21461019e5780631f404076146101b55761015a565b3661015a577f999946acc98c7b7dacc26921697d55abbcb1637484b0a73040f0b06287e4332642333460405161015093929190611de0565b60405180910390a1005b005b34801561016857600080fd5b5061017161043b565b60405161017e9190611e17565b60405180910390f35b34801561019357600080fd5b5061019c6104fe565b005b3480156101aa57600080fd5b506101b3610639565b005b3480156101c157600080fd5b506101dc60048036038101906101d79190611e72565b6108c6565b005b3480156101ea57600080fd5b5061020560048036038101906102009190611ff8565b610a51565b005b34801561021357600080fd5b5061021c610b11565b6040516102299190612075565b60405180910390f35b34801561023e57600080fd5b50610247610b37565b005b34801561025557600080fd5b5061025e610d1f565b60405161026b9190611e17565b60405180910390f35b34801561028057600080fd5b50610289610d25565b6040516102969190611e17565b60405180910390f35b3480156102ab57600080fd5b506102b4610d32565b6040516102c19190612107565b60405180910390f35b3480156102d657600080fd5b506102df610d45565b6040516102ec9190612122565b60405180910390f35b34801561030157600080fd5b5061030a610d6b565b60405161031892919061213d565b60405180910390f35b34801561032d57600080fd5b5061034860048036038101906103439190611e72565b610eb1565b6040516103559190611e17565b60405180910390f35b34801561036a57600080fd5b50610373610ed5565b6040516103809190611e17565b60405180910390f35b34801561039557600080fd5b5061039e610eda565b005b3480156103ac57600080fd5b506103c760048036038101906103c29190612192565b61110c565b6040516103d49190611e17565b60405180910390f35b6103e5611124565b005b3480156103f357600080fd5b5061040e60048036038101906104099190611e72565b611382565b60405161041b9190612075565b60405180910390f35b34801561043057600080fd5b506104396113c1565b005b600080600960009054906101000a900473ffffffffffffffffffffffffffffffffffffffff1673ffffffffffffffffffffffffffffffffffffffff1663feaf968c6040518163ffffffff1660e01b815260040160a060405180830381865afa1580156104ab573d6000803e3d6000fd5b505050506040513d601f19601f820116820180604052508101906104cf919061224c565b505050915050806a52b7d2dcc80cd2e400000060326104ee91906122f6565b6104f8919061237f565b91505090565b6000600381111561051257610511612090565b5b600560009054906101000a900460ff16600381111561053457610533612090565b5b14610574576040517f08c379a000000000000000000000000000000000000000000000000000000000815260040161056b9061240d565b60405180910390fd5b600360009054906101000a900473ffffffffffffffffffffffffffffffffffffffff1673ffffffffffffffffffffffffffffffffffffffff163373ffffffffffffffffffffffffffffffffffffffff1614610604576040517f08c379a00000000000000000000000000000000000000000000000000000000081526004016105fb9061249f565b60405180910390fd5b6002600560006101000a81548160ff0219169083600381111561062a57610629612090565b5b02179055506106376115d3565b565b6001600381111561064d5761064c612090565b5b600560009054906101000a900460ff16600381111561066f5761066e612090565b5b146106af576040517f08c379a00000000000000000000000000000000000000000000000000000000081526004016106a69061250b565b60405180910390fd5b600360009054906101000a900473ffffffffffffffffffffffffffffffffffffffff1673ffffffffffffffffffffffffffffffffffffffff163373ffffffffffffffffffffffffffffffffffffffff161461073f576040517f08c379a00000000000000000000000000000000000000000000000000000000081526004016107369061249f565b60405180910390fd5b6000600190505b6001805490508110156107ef576000600182815481106107695761076861252b565b5b9060005260206000200160009054906101000a900473ffffffffffffffffffffffffffffffffffffffff1690506000600460008373ffffffffffffffffffffffffffffffffffffffff1673ffffffffffffffffffffffffffffffffffffffff168152602001908152602001600020819055505080806107e79061255a565b915050610746565b50600067ffffffffffffffff81111561080b5761080a611eb5565b5b6040519080825280602002602001820160405280156108395781602001602082028036833780820191505090505b506001908051906020019061084f929190611c92565b506000600260006101000a81548173ffffffffffffffffffffffffffffffffffffffff021916908373ffffffffffffffffffffffffffffffffffffffff160217905550600080819055506000600560006101000a81548160ff021916908360038111156108bf576108be612090565b5b0217905550565b600c60009054906101000a900473ffffffffffffffffffffffffffffffffffffffff1673ffffffffffffffffffffffffffffffffffffffff1663095ea7b3600b60009054906101000a900473ffffffffffffffffffffffffffffffffffffffff16836040518363ffffffff1660e01b81526004016109459291906125a3565b6020604051808303816000875af1158015610964573d6000803e3d6000fd5b505050506040513d601f19601f820116820180604052508101906109889190612604565b50600b60009054906101000a900473ffffffffffffffffffffffffffffffffffffffff1673ffffffffffffffffffffffffffffffffffffffff166369328dec600c60009054906101000a900473ffffffffffffffffffffffffffffffffffffffff1683306040518463ffffffff1660e01b8152600401610a0a93929190612631565b6020604051808303816000875af1158015610a29573d6000803e3d6000fd5b505050506040513d601f19601f82011682018060405250810190610a4d9190612668565b5050565b7f000000000000000000000000000000000000000000000000000000000000000073ffffffffffffffffffffffffffffffffffffffff163373ffffffffffffffffffffffffffffffffffffffff1614610b0357337f00000000000000000000000000000000000000000000000000000000000000006040517f1cf993f4000000000000000000000000000000000000000000000000000000008152600401610afa929190612695565b60405180910390fd5b610b0d8282611795565b5050565b600260009054906101000a900473ffffffffffffffffffffffffffffffffffffffff1681565b600360009054906101000a900473ffffffffffffffffffffffffffffffffffffffff1673ffffffffffffffffffffffffffffffffffffffff163373ffffffffffffffffffffffffffffffffffffffff1614610bc7576040517f08c379a0000000000000000000000000000000000000000000000000000000008152600401610bbe9061249f565b60405180910390fd5b600068056bc75e2d631000009050610bde816108c6565b6000600c60009054906101000a900473ffffffffffffffffffffffffffffffffffffffff1673ffffffffffffffffffffffffffffffffffffffff166370a08231306040518263ffffffff1660e01b8152600401610c3b9190612122565b602060405180830381865afa158015610c58573d6000803e3d6000fd5b505050506040513d601f19601f82011682018060405250810190610c7c9190612668565b9050610c87816119e5565b600360009054906101000a900473ffffffffffffffffffffffffffffffffffffffff1673ffffffffffffffffffffffffffffffffffffffff166108fc479081150290604051600060405180830381858888f19350505050158015610cef573d6000803e3d6000fd5b506001600560006101000a81548160ff02191690836003811115610d1657610d15612090565b5b02179055505050565b60005481565b6000600180549050905090565b600560009054906101000a900460ff1681565b600360009054906101000a900473ffffffffffffffffffffffffffffffffffffffff1681565b600080600360009054906101000a900473ffffffffffffffffffffffffffffffffffffffff1673ffffffffffffffffffffffffffffffffffffffff163373ffffffffffffffffffffffffffffffffffffffff1614610dfe576040517f08c379a0000000000000000000000000000000000000000000000000000000008152600401610df59061249f565b60405180910390fd5b600080600b60009054906101000a900473ffffffffffffffffffffffffffffffffffffffff1673ffffffffffffffffffffffffffffffffffffffff1663bf92857c306040518263ffffffff1660e01b8152600401610e5c9190612122565b60c060405180830381865afa158015610e79573d6000803e3d6000fd5b505050506040513d601f19601f82011682018060405250810190610e9d91906126be565b505050509150915081819350935050509091565b60088181548110610ec157600080fd5b906000526020600020016000915090505481565b603281565b60016003811115610eee57610eed612090565b5b600560009054906101000a900460ff166003811115610f1057610f0f612090565b5b14610f50576040517f08c379a0000000000000000000000000000000000000000000000000000000008152600401610f479061250b565b60405180910390fd5b600360009054906101000a900473ffffffffffffffffffffffffffffffffffffffff1673ffffffffffffffffffffffffffffffffffffffff163373ffffffffffffffffffffffffffffffffffffffff1614610fe0576040517f08c379a0000000000000000000000000000000000000000000000000000000008152600401610fd79061249f565b60405180910390fd5b6000670de0b6b3a76400009050610ff6816108c6565b6000600c60009054906101000a900473ffffffffffffffffffffffffffffffffffffffff1673ffffffffffffffffffffffffffffffffffffffff166370a08231306040518263ffffffff1660e01b81526004016110539190612122565b602060405180830381865afa158015611070573d6000803e3d6000fd5b505050506040513d601f19601f820116820180604052508101906110949190612668565b905061109f816119e5565b600360009054906101000a900473ffffffffffffffffffffffffffffffffffffffff1673ffffffffffffffffffffffffffffffffffffffff166108fc479081150290604051600060405180830381858888f19350505050158015611107573d6000803e3d6000fd5b505050565b60046020528060005260406000206000915090505481565b6000600381111561113857611137612090565b5b600560009054906101000a900460ff16600381111561115a57611159612090565b5b1461119a576040517f08c379a00000000000000000000000000000000000000000000000000000000081526004016111919061240d565b60405180910390fd5b6111a261043b565b3410156111e4576040517f08c379a00000000000000000000000000000000000000000000000000000000081526004016111db90612797565b60405180910390fd5b6001339080600181540180825580915050600190039060005260206000200160009091909190916101000a81548173ffffffffffffffffffffffffffffffffffffffff021916908373ffffffffffffffffffffffffffffffffffffffff16021790555034600460003373ffffffffffffffffffffffffffffffffffffffff1673ffffffffffffffffffffffffffffffffffffffff168152602001908152602001600020600082825461129691906127b7565b92505081905550600c60009054906101000a900473ffffffffffffffffffffffffffffffffffffffff1673ffffffffffffffffffffffffffffffffffffffff1663d0e30db0346040518263ffffffff1660e01b81526004016000604051808303818588803b15801561130757600080fd5b505af115801561131b573d6000803e3d6000fd5b505050505061132934611b16565b3460008082825461133a91906127b7565b925050819055507f3adf88379a3a55a4c298c42c5d8cf7e2be6ba616ce552f3fdf798c8b0912e543423334600054604051611378949392919061280d565b60405180910390a1565b6001818154811061139257600080fd5b906000526020600020016000915054906101000a900473ffffffffffffffffffffffffffffffffffffffff1681565b6003808111156113d4576113d3612090565b5b600560009054906101000a900460ff1660038111156113f6576113f5612090565b5b14611436576040517f08c379a000000000000000000000000000000000000000000000000000000000815260040161142d9061289e565b60405180910390fd5b600360009054906101000a900473ffffffffffffffffffffffffffffffffffffffff1673ffffffffffffffffffffffffffffffffffffffff163373ffffffffffffffffffffffffffffffffffffffff16146114c6576040517f08c379a00000000000000000000000000000000000000000000000000000000081526004016114bd9061249f565b60405180910390fd5b6114d16000546108c6565b6114dc6000546119e5565b600260009054906101000a900473ffffffffffffffffffffffffffffffffffffffff1673ffffffffffffffffffffffffffffffffffffffff166108fc6000549081150290604051600060405180830381858888f19350505050158015611546573d6000803e3d6000fd5b506001600560006101000a81548160ff0219169083600381111561156d5761156c612090565b5b02179055507fe69918a4005007a4f1ece77dfd6732a6507d48dedd08837d38c74fb26a9fad2942600260009054906101000a900473ffffffffffffffffffffffffffffffffffffffff166000546040516115c99392919061291d565b60405180910390a1565b600360009054906101000a900473ffffffffffffffffffffffffffffffffffffffff1673ffffffffffffffffffffffffffffffffffffffff163373ffffffffffffffffffffffffffffffffffffffff1614611663576040517f08c379a000000000000000000000000000000000000000000000000000000000815260040161165a9061249f565b60405180910390fd5b6000600a60009054906101000a900473ffffffffffffffffffffffffffffffffffffffff1673ffffffffffffffffffffffffffffffffffffffff16635d3b1d30600654600560019054906101000a900467ffffffffffffffff16600760049054906101000a900461ffff16600760009054906101000a900463ffffffff16600760069054906101000a900463ffffffff166040518663ffffffff1660e01b81526004016117149594939291906129cc565b6020604051808303816000875af1158015611733573d6000803e3d6000fd5b505050506040513d601f19601f820116820180604052508101906117579190612668565b90507f90dce42ecf81a4e47188055540db1bde6c77b88941ba9aaf76e6e38bdc9a8650428260405161178a92919061213d565b60405180910390a150565b600260038111156117a9576117a8612090565b5b600560009054906101000a900460ff1660038111156117cb576117ca612090565b5b1461180b576040517f08c379a000000000000000000000000000000000000000000000000000000000815260040161180290612a6b565b60405180910390fd5b8060089080519060200190611821929190611d1c565b50600060086000815481106118395761183861252b565b5b906000526020600020015411611884576040517f08c379a000000000000000000000000000000000000000000000000000000000815260040161187b90612ad7565b60405180910390fd5b600060018054905060086000815481106118a1576118a061252b565b5b90600052602060002001546118b69190612af7565b9050600181815481106118cc576118cb61252b565b5b9060005260206000200160009054906101000a900473ffffffffffffffffffffffffffffffffffffffff16600260006101000a81548173ffffffffffffffffffffffffffffffffffffffff021916908373ffffffffffffffffffffffffffffffffffffffff1602179055506003600560006101000a81548160ff0219169083600381111561195d5761195c612090565b5b02179055507f1fb16c696e197eb943bf66b85630ccdc6b3ebcbbee7452c1335238ace4aaeb3c4260086000815481106119995761199861252b565b5b906000526020600020015483600260009054906101000a900473ffffffffffffffffffffffffffffffffffffffff166040516119d89493929190612b28565b60405180910390a1505050565b600c60009054906101000a900473ffffffffffffffffffffffffffffffffffffffff1673ffffffffffffffffffffffffffffffffffffffff1663095ea7b330836040518363ffffffff1660e01b8152600401611a429291906125a3565b6020604051808303816000875af1158015611a61573d6000803e3d6000fd5b505050506040513d601f19601f82011682018060405250810190611a859190612604565b50600c60009054906101000a900473ffffffffffffffffffffffffffffffffffffffff1673ffffffffffffffffffffffffffffffffffffffff16632e1a7d4d826040518263ffffffff1660e01b8152600401611ae19190611e17565b600060405180830381600087803b158015611afb57600080fd5b505af1158015611b0f573d6000803e3d6000fd5b5050505050565b600c60009054906101000a900473ffffffffffffffffffffffffffffffffffffffff1673ffffffffffffffffffffffffffffffffffffffff1663095ea7b3600b60009054906101000a900473ffffffffffffffffffffffffffffffffffffffff16836040518363ffffffff1660e01b8152600401611b959291906125a3565b6020604051808303816000875af1158015611bb4573d6000803e3d6000fd5b505050506040513d601f19601f82011682018060405250810190611bd89190612604565b50600b60009054906101000a900473ffffffffffffffffffffffffffffffffffffffff1673ffffffffffffffffffffffffffffffffffffffff1663617ba037600c60009054906101000a900473ffffffffffffffffffffffffffffffffffffffff16833060006040518563ffffffff1660e01b8152600401611c5d9493929190612ba8565b600060405180830381600087803b158015611c7757600080fd5b505af1158015611c8b573d6000803e3d6000fd5b5050505050565b828054828255906000526020600020908101928215611d0b579160200282015b82811115611d0a5782518260006101000a81548173ffffffffffffffffffffffffffffffffffffffff021916908373ffffffffffffffffffffffffffffffffffffffff16021790555091602001919060010190611cb2565b5b509050611d189190611d69565b5090565b828054828255906000526020600020908101928215611d58579160200282015b82811115611d57578251825591602001919060010190611d3c565b5b509050611d659190611d69565b5090565b5b80821115611d82576000816000905550600101611d6a565b5090565b6000819050919050565b611d9981611d86565b82525050565b600073ffffffffffffffffffffffffffffffffffffffff82169050919050565b6000611dca82611d9f565b9050919050565b611dda81611dbf565b82525050565b6000606082019050611df56000830186611d90565b611e026020830185611dd1565b611e0f6040830184611d90565b949350505050565b6000602082019050611e2c6000830184611d90565b92915050565b6000604051905090565b600080fd5b600080fd5b611e4f81611d86565b8114611e5a57600080fd5b50565b600081359050611e6c81611e46565b92915050565b600060208284031215611e8857611e87611e3c565b5b6000611e9684828501611e5d565b91505092915050565b600080fd5b6000601f19601f8301169050919050565b7f4e487b7100000000000000000000000000000000000000000000000000000000600052604160045260246000fd5b611eed82611ea4565b810181811067ffffffffffffffff82111715611f0c57611f0b611eb5565b5b80604052505050565b6000611f1f611e32565b9050611f2b8282611ee4565b919050565b600067ffffffffffffffff821115611f4b57611f4a611eb5565b5b602082029050602081019050919050565b600080fd5b6000611f74611f6f84611f30565b611f15565b90508083825260208201905060208402830185811115611f9757611f96611f5c565b5b835b81811015611fc05780611fac8882611e5d565b845260208401935050602081019050611f99565b5050509392505050565b600082601f830112611fdf57611fde611e9f565b5b8135611fef848260208601611f61565b91505092915050565b6000806040838503121561200f5761200e611e3c565b5b600061201d85828601611e5d565b925050602083013567ffffffffffffffff81111561203e5761203d611e41565b5b61204a85828601611fca565b9150509250929050565b600061205f82611d9f565b9050919050565b61206f81612054565b82525050565b600060208201905061208a6000830184612066565b92915050565b7f4e487b7100000000000000000000000000000000000000000000000000000000600052602160045260246000fd5b600481106120d0576120cf612090565b5b50565b60008190506120e1826120bf565b919050565b60006120f1826120d3565b9050919050565b612101816120e6565b82525050565b600060208201905061211c60008301846120f8565b92915050565b60006020820190506121376000830184611dd1565b92915050565b60006040820190506121526000830185611d90565b61215f6020830184611d90565b9392505050565b61216f81611dbf565b811461217a57600080fd5b50565b60008135905061218c81612166565b92915050565b6000602082840312156121a8576121a7611e3c565b5b60006121b68482850161217d565b91505092915050565b600069ffffffffffffffffffff82169050919050565b6121de816121bf565b81146121e957600080fd5b50565b6000815190506121fb816121d5565b92915050565b6000819050919050565b61221481612201565b811461221f57600080fd5b50565b6000815190506122318161220b565b92915050565b60008151905061224681611e46565b92915050565b600080600080600060a0868803121561226857612267611e3c565b5b6000612276888289016121ec565b955050602061228788828901612222565b945050604061229888828901612237565b93505060606122a988828901612237565b92505060806122ba888289016121ec565b9150509295509295909350565b7f4e487b7100000000000000000000000000000000000000000000000000000000600052601160045260246000fd5b600061230182611d86565b915061230c83611d86565b9250817fffffffffffffffffffffffffffffffffffffffffffffffffffffffffffffffff0483118215151615612345576123446122c7565b5b828202905092915050565b7f4e487b7100000000000000000000000000000000000000000000000000000000600052601260045260246000fd5b600061238a82611d86565b915061239583611d86565b9250826123a5576123a4612350565b5b828204905092915050565b600082825260208201905092915050565b7f4c6f74746572792073686f756c64206265207374617274656400000000000000600082015250565b60006123f76019836123b0565b9150612402826123c1565b602082019050919050565b60006020820190508181036000830152612426816123ea565b9050919050565b7f4f6e6c792061646d696e20697320616c6c6f77656420746f20646f207468697360008201527f206f7065726174696f6e00000000000000000000000000000000000000000000602082015250565b6000612489602a836123b0565b91506124948261242d565b604082019050919050565b600060208201905081810360008301526124b88161247c565b9050919050565b7f4c6f74746572792073686f756c642062652066696e6973686564000000000000600082015250565b60006124f5601a836123b0565b9150612500826124bf565b602082019050919050565b60006020820190508181036000830152612524816124e8565b9050919050565b7f4e487b7100000000000000000000000000000000000000000000000000000000600052603260045260246000fd5b600061256582611d86565b91507fffffffffffffffffffffffffffffffffffffffffffffffffffffffffffffffff821415612598576125976122c7565b5b600182019050919050565b60006040820190506125b86000830185611dd1565b6125c56020830184611d90565b9392505050565b60008115159050919050565b6125e1816125cc565b81146125ec57600080fd5b50565b6000815190506125fe816125d8565b92915050565b60006020828403121561261a57612619611e3c565b5b6000612628848285016125ef565b91505092915050565b60006060820190506126466000830186611dd1565b6126536020830185611d90565b6126606040830184611dd1565b949350505050565b60006020828403121561267e5761267d611e3c565b5b600061268c84828501612237565b91505092915050565b60006040820190506126aa6000830185611dd1565b6126b76020830184611dd1565b9392505050565b60008060008060008060c087890312156126db576126da611e3c565b5b60006126e989828a01612237565b96505060206126fa89828a01612237565b955050604061270b89828a01612237565b945050606061271c89828a01612237565b935050608061272d89828a01612237565b92505060a061273e89828a01612237565b9150509295509295509295565b7f4e6f7420656e6f7567682045544820746f20656e746572210000000000000000600082015250565b60006127816018836123b0565b915061278c8261274b565b602082019050919050565b600060208201905081810360008301526127b081612774565b9050919050565b60006127c282611d86565b91506127cd83611d86565b9250827fffffffffffffffffffffffffffffffffffffffffffffffffffffffffffffffff03821115612802576128016122c7565b5b828201905092915050565b60006080820190506128226000830187611d90565b61282f6020830186611dd1565b61283c6040830185611d90565b6128496060830184611d90565b95945050505050565b7f4c6f74746572792073686f756c642073656c6563742077696e6e657200000000600082015250565b6000612888601c836123b0565b915061289382612852565b602082019050919050565b600060208201905081810360008301526128b78161287b565b9050919050565b6000819050919050565b60006128e36128de6128d984611d9f565b6128be565b611d9f565b9050919050565b60006128f5826128c8565b9050919050565b6000612907826128ea565b9050919050565b612917816128fc565b82525050565b60006060820190506129326000830186611d90565b61293f602083018561290e565b61294c6040830184611d90565b949350505050565b6000819050919050565b61296781612954565b82525050565b600067ffffffffffffffff82169050919050565b61298a8161296d565b82525050565b600061ffff82169050919050565b6129a781612990565b82525050565b600063ffffffff82169050919050565b6129c6816129ad565b82525050565b600060a0820190506129e1600083018861295e565b6129ee6020830187612981565b6129fb604083018661299e565b612a0860608301856129bd565b612a1560808301846129bd565b9695505050505050565b7f4c6f7474657279206973206e6f7420696e20636f727265637420737461746500600082015250565b6000612a55601f836123b0565b9150612a6082612a1f565b602082019050919050565b60006020820190508181036000830152612a8481612a48565b9050919050565b7f52616e646f6d206e756d6265722073686f756c64206265203e20300000000000600082015250565b6000612ac1601b836123b0565b9150612acc82612a8b565b602082019050919050565b60006020820190508181036000830152612af081612ab4565b9050919050565b6000612b0282611d86565b9150612b0d83611d86565b925082612b1d57612b1c612350565b5b828206905092915050565b6000608082019050612b3d6000830187611d90565b612b4a6020830186611d90565b612b576040830185611d90565b612b64606083018461290e565b95945050505050565b6000819050919050565b6000612b92612b8d612b8884612b6d565b6128be565b612990565b9050919050565b612ba281612b77565b82525050565b6000608082019050612bbd6000830187611dd1565b612bca6020830186611d90565b612bd76040830185611dd1565b612be46060830184612b99565b9594505050505056fea2646970667358221220876f4d584375639d57e9130b3112f6ae94bc4f012adf36c236125131440b93df64736f6c634300080a0033",
  "devdoc": {
    "kind": "dev",
    "methods": {},
    "version": 1
  },
  "userdoc": {
    "kind": "user",
    "methods": {},
    "version": 1
  },
  "storageLayout": {
    "storage": [
      {
        "astId": 1228,
        "contract": "contracts/Lottery.sol:Lottery",
        "label": "prizePool",
        "offset": 0,
        "slot": "0",
        "type": "t_uint256"
      },
      {
        "astId": 1231,
        "contract": "contracts/Lottery.sol:Lottery",
        "label": "players",
        "offset": 0,
        "slot": "1",
        "type": "t_array(t_address_payable)dyn_storage"
      },
      {
        "astId": 1233,
        "contract": "contracts/Lottery.sol:Lottery",
        "label": "recentWinner",
        "offset": 0,
        "slot": "2",
        "type": "t_address_payable"
      },
      {
        "astId": 1235,
        "contract": "contracts/Lottery.sol:Lottery",
        "label": "owner",
        "offset": 0,
        "slot": "3",
        "type": "t_address"
      },
      {
        "astId": 1239,
        "contract": "contracts/Lottery.sol:Lottery",
        "label": "playerDeposit",
        "offset": 0,
        "slot": "4",
        "type": "t_mapping(t_address,t_uint256)"
      },
      {
        "astId": 1247,
        "contract": "contracts/Lottery.sol:Lottery",
        "label": "lottery_state",
        "offset": 0,
        "slot": "5",
        "type": "t_enum(LOTTERY_STATE)1244"
      },
      {
        "astId": 1249,
        "contract": "contracts/Lottery.sol:Lottery",
        "label": "subscriptionId",
        "offset": 1,
        "slot": "5",
        "type": "t_uint64"
      },
      {
        "astId": 1251,
        "contract": "contracts/Lottery.sol:Lottery",
        "label": "keyHash",
        "offset": 0,
        "slot": "6",
        "type": "t_bytes32"
      },
      {
        "astId": 1254,
        "contract": "contracts/Lottery.sol:Lottery",
        "label": "callbackGasLimit",
        "offset": 0,
        "slot": "7",
        "type": "t_uint32"
      },
      {
        "astId": 1257,
        "contract": "contracts/Lottery.sol:Lottery",
        "label": "requestConfirmations",
        "offset": 4,
        "slot": "7",
        "type": "t_uint16"
      },
      {
        "astId": 1260,
        "contract": "contracts/Lottery.sol:Lottery",
        "label": "numWords",
        "offset": 6,
        "slot": "7",
        "type": "t_uint32"
      },
      {
        "astId": 1263,
        "contract": "contracts/Lottery.sol:Lottery",
        "label": "randomWords",
        "offset": 0,
        "slot": "8",
        "type": "t_array(t_uint256)dyn_storage"
      },
      {
        "astId": 1266,
        "contract": "contracts/Lottery.sol:Lottery",
        "label": "priceFeed",
        "offset": 0,
        "slot": "9",
        "type": "t_contract(AggregatorV3Interface)160"
      },
      {
        "astId": 1269,
        "contract": "contracts/Lottery.sol:Lottery",
        "label": "vrfCoordinator",
        "offset": 0,
        "slot": "10",
        "type": "t_contract(VRFCoordinatorV2Interface)351"
      },
      {
        "astId": 1272,
        "contract": "contracts/Lottery.sol:Lottery",
        "label": "aavePool",
        "offset": 0,
        "slot": "11",
        "type": "t_contract(IPool)3143"
      },
      {
        "astId": 1275,
        "contract": "contracts/Lottery.sol:Lottery",
        "label": "wethContract",
        "offset": 0,
        "slot": "12",
        "type": "t_contract(IWeth)3428"
      }
    ],
    "types": {
      "t_address": {
        "encoding": "inplace",
        "label": "address",
        "numberOfBytes": "20"
      },
      "t_address_payable": {
        "encoding": "inplace",
        "label": "address payable",
        "numberOfBytes": "20"
      },
      "t_array(t_address_payable)dyn_storage": {
        "base": "t_address_payable",
        "encoding": "dynamic_array",
        "label": "address payable[]",
        "numberOfBytes": "32"
      },
      "t_array(t_uint256)dyn_storage": {
        "base": "t_uint256",
        "encoding": "dynamic_array",
        "label": "uint256[]",
        "numberOfBytes": "32"
      },
      "t_bytes32": {
        "encoding": "inplace",
        "label": "bytes32",
        "numberOfBytes": "32"
      },
      "t_contract(AggregatorV3Interface)160": {
        "encoding": "inplace",
        "label": "contract AggregatorV3Interface",
        "numberOfBytes": "20"
      },
      "t_contract(IPool)3143": {
        "encoding": "inplace",
        "label": "contract IPool",
        "numberOfBytes": "20"
      },
      "t_contract(IWeth)3428": {
        "encoding": "inplace",
        "label": "contract IWeth",
        "numberOfBytes": "20"
      },
      "t_contract(VRFCoordinatorV2Interface)351": {
        "encoding": "inplace",
        "label": "contract VRFCoordinatorV2Interface",
        "numberOfBytes": "20"
      },
      "t_enum(LOTTERY_STATE)1244": {
        "encoding": "inplace",
        "label": "enum Lottery.LOTTERY_STATE",
        "numberOfBytes": "1"
      },
      "t_mapping(t_address,t_uint256)": {
        "encoding": "mapping",
        "key": "t_address",
        "label": "mapping(address => uint256)",
        "numberOfBytes": "32",
        "value": "t_uint256"
      },
      "t_uint16": {
        "encoding": "inplace",
        "label": "uint16",
        "numberOfBytes": "2"
      },
      "t_uint256": {
        "encoding": "inplace",
        "label": "uint256",
        "numberOfBytes": "32"
      },
      "t_uint32": {
        "encoding": "inplace",
        "label": "uint32",
        "numberOfBytes": "4"
      },
      "t_uint64": {
        "encoding": "inplace",
        "label": "uint64",
        "numberOfBytes": "8"
      }
    }
  }
}